:100000000C945D000C9485000C9485000C94850084
:100010000C9485000C9485000C9485000C9485004C
:100020000C9485000C9485000C9485000C9485003C
:100030000C9485000C9485000C9485000C9485002C
:100040000C944D040C9485000C9485000C94850050
:100050000C9485000C9485000C9485000C9485000C
:100060000C947B020C948500000000070002010044
:100070000003040600000000000000000102040864
:100080001020408001020408102001020408102002
:10009000040404040404040402020202020203032E
:1000A0000303030300000000250028002B000000CC
:1000B0000000240027002A00DD0111241FBECFEF1D
:1000C000D8E0DEBFCDBF11E0A0E0B1E0E4EBF9E0A5
:1000D00002C005900D92A031B107D9F721E0A0E14F
:1000E000B1E001C01D92A93DB207E1F710E0CAEBF3
:1000F000D0E004C02297FE010E94D404C83BD1077F
:10010000C9F70E9440040C94D8040C940000DC0150
:10011000ED91FC910190F081E02D09940F931F93D4
:10012000CF93DF93EC018B016AE270E080E191E014
:100130000E94C50162E070E080E191E00E948700CA
:1001400060E170E080E191E00E94870080E191E051
:100150000E94DA016AE270E080E191E00E94C5014C
:1001600065E070E080E191E00E9487007D2F770FCD
:10017000770B6D2F80E191E00E948700BE01772709
:1001800080E191E00E948700B80180E191E00E9447
:10019000870080E191E00E94DA016AE270E080E18C
:1001A00091E00E94C50160E070E080E191E00E9472
:1001B000870068E070E080E191E00E94870080E1C4
:1001C00091E0DF91CF911F910F910C94DA0161E0E2
:1001D00088E00E94D10361E088E00E940A0480E187
:1001E00091E00E94B10169E170E08DE790E00E942A
:1001F0008E0067E170E08EE790E00E948E006AE278
:1002000070E080E191E00E94C50160E070E080E173
:1002100091E00E9487006FE170E080E191E00E9430
:10022000870080E191E00E94DA0160E088E00C94B0
:100230000A0408958091400190E020914101821BC1
:10024000910908952091410180914001281750F4AF
:10025000E22FF0E0EE5BFE4F808190E02F5F209375
:10026000410108958FEF9FEF0895E0914101809142
:100270004001E81730F4F0E0EE5BFE4F808190E043
:1002800008958FEF9FEF08950895CF92DF92EF9238
:10029000FF920F931F93CF93DF937C01CB018A01D1
:1002A00020911C01222389F0EB016B01C40ED51EA5
:1002B000CC15DD0569F06991D701ED91FC910190B4
:1002C000F081E02DC7010995F3CF642F0E945202FF
:1002D000C801DF91CF911F910F91FF90EF90DF90B8
:1002E000CF900895CF93DF931F92CDB7DEB7698388
:1002F00020911C012223D1F020911D01203240F0D9
:1003000021E030E0FC013383228380E090E015C0DF
:1003100080911E01E82FF0E0E15EFE4F998190830D
:100320008F5F80931E0180931D0105C061E0CE01A7
:1003300001960E94520281E090E00F90DF91CF91F0
:100340000895FC011382128248EE53E060E070E0F1
:10035000448355836683778384E091E0918380832F
:100360000895109241011092400110921E011092C6
:100370001D010C94E10181E080931C0160933F0119
:1003800010921E0110921D0108950C94BB010F9351
:10039000062F21E040911D016FE171E080913F0146
:1003A0000E94FF0110921E0110921D0110921C016B
:1003B0000F91089561E00C94C70180E191E00C94E5
:1003C000A1011092CF0181E08093CD011092CC0168
:1003D00061E082E10E940A0461E083E10E940A0474
:1003E000E9EBF0E080818E7F808380818D7F808348
:1003F00088E48093B80085E48093BC0008950F934F
:10040000413208F046C09091CF019111FCCF92E0AB
:100410009093CF010093CD019FEF909362011092D2
:10042000A7014093A601FB0168EA71E0DB019A2F66
:10043000961B941718F491919D93F9CF1092CE01C9
:100440009091CE01880F892B8093CE018091CC01B1
:10045000813041F41092CC018091CE018093BB0099
:1004600085EC01C085EE8093BC00222321F08091B1
:10047000CF018230E1F3809162018F3F61F0809182
:100480006201803251F080916201803341F483E057
:1004900007C081E005C080E003C082E001C084E0C5
:1004A0000F910895613298F42091CF01243089F49E
:1004B00060938401FC0186E891E0DC012A2F281B6F
:1004C000261718F421912D93F9CF80E0089581E04B
:1004D000089582E0089585ED8093BC008091BC0072
:1004E00084FDFCCF1092CF01089585EC8093BC0071
:1004F0001092CF0108951F920F920FB60F92112400
:100500002F933F934F935F936F937F938F939F931B
:10051000AF93BF93EF93FF938091B900887F8036AC
:1005200009F49CC068F5883209F45BC090F480310E
:1005300009F454C038F4882309F4F5C0883009F46C
:100540004DC0F5C0883109F44CC0803209F45DC05B
:10055000EEC0803409F468C048F4803309F455C013
:10056000883309F0E4C080936201A8C0803509F4A3
:100570004FC0883509F45DC0883409F0D8C0D5C0B3
:10058000883909F4C6C0A8F4883709F467C038F47C
:10059000883609F463C0803709F460C0C8C0883861
:1005A00009F4B7C0803909F45FC0803809F0BFC0D2
:1005B0005BC0803B09F485C038F4803A09F466C01A
:1005C000883A09F47EC0B3C0803C09F4A6C0883CD8
:1005D00009F4A3C0883B09F489C0A9C08091CE0169
:1005E00010C09091A7018091A601981770F5E09135
:1005F000A70181E08E0F8093A701F0E0E855FE4F40
:1006000080818093BB0085EC85C0809362018DC0A2
:10061000E091A70181E08E0F8093A7018091BB003C
:10062000F0E0E855FE4F80839091A7018091A601EC
:100630006DC0E091A70181E08E0F8093A7018091AA
:10064000BB00F0E0E855FE4F80838091CD01811121
:100650006CC081E08093CC0184EA60C083E0809329
:10066000CF0110926301CFCF80916301803208F0F7
:1006700050C0E091630181E08E0F8093630180910F
:10068000BB00F0E0EC59FE4F8083BDCF8091630149
:10069000803230F4E0916301F0E0EC59FE4F1082BB
:1006A0000E946B026091630170E0E091C801F091DB
:1006B000C90184E691E00995109263010E947502D8
:1006C00036C084E08093CF0110928501109284019E
:1006D000E091CA01F091CB010995809184018111CB
:1006E00005C081E08093840110928601E09185012C
:1006F00081E08E0F80938501F0E0EA57FE4F808104
:100700008093BB009091850180918401981708F433
:100710007ACF85E88093BC000AC085EC8093BC004A
:100720001092CF0104C0109262010E946B02FF91EF
:10073000EF91BF91AF919F918F917F916F915F9159
:100740004F913F912F910F900FBE0F901F901895D2
:10075000833081F028F4813099F08230A1F008953F
:100760008630A9F08730B9F08430D1F480918000D0
:100770008F7D03C0809180008F77809380000895E3
:1007800084B58F7702C084B58F7D84BD0895809134
:10079000B0008F7703C08091B0008F7D8093B00050
:1007A0000895CF93DF9390E0FC01E458FF4F24912C
:1007B000FC01E057FF4F8491882349F190E0880FB6
:1007C000991FFC01E255FF4FA591B4918C559F4FA5
:1007D000FC01C591D4919FB7611108C0F8948C9128
:1007E000209582238C93888182230AC0623051F441
:1007F000F8948C91322F309583238C938881822BAF
:10080000888304C0F8948C91822B8C939FBFDF91D6
:10081000CF9108950F931F93CF93DF931F92CDB77E
:10082000DEB7282F30E0F901E859FF4F8491F90134
:10083000E458FF4F1491F901E057FF4F0491002352
:10084000C9F0882321F069830E94A8036981E02F01
:10085000F0E0EE0FFF1FEC55FF4FA591B4919FB74D
:10086000F8948C91611103C01095812301C0812BF4
:100870008C939FBF0F90DF91CF911F910F9108959F
:100880000E9497040E94E700C0E0D0E00E94190196
:100890002097E1F30E940000F9CF1F920F920FB64C
:1008A0000F9211242F933F938F939F93AF93BF93F6
:1008B0008091D1019091D201A091D301B091D40146
:1008C0003091D00123E0230F2D3720F40196A11D94
:1008D000B11D05C026E8230F0296A11DB11D20936E
:1008E000D0018093D1019093D201A093D301B09312
:1008F000D4018091D5019091D601A091D701B091FA
:10090000D8010196A11DB11D8093D5019093D60108
:10091000A093D701B093D801BF91AF919F918F91D0
:100920003F912F910F900FBE0F901F9018957894C4
:1009300084B5826084BD84B5816084BD85B58260E4
:1009400085BD85B5816085BDEEE6F0E08081816082
:100950008083E1E8F0E01082808182608083808182
:1009600081608083E0E8F0E0808181608083E1EB5A
:10097000F0E0808184608083E0EBF0E08081816042
:100980008083EAE7F0E080818460808380818260F8
:1009900080838081816080838081806880831092E1
:1009A000C1000895EE0FFF1F0590F491E02D09940A
:0409B000F894FFCFE9
:1009B40000000000720145011A01220135014401C1
:00000001FF
